:020000040800F2
:1000000008040020ED010008F90A00084D0300086B
:10001000750A000885020008390F0008000000007A
:100020000000000000000000000000009D0D00081E
:100030000903000800000000FB0A00089F0D0008EB
:10004000070200080702000807020008070200086C
:10005000070200080702000807020008070200085C
:10006000070200080702000807020008070200084C
:10007000070200080702000807020008070200083C
:10008000070200080000000007020008070200083D
:10009000070200080702000807020008070200081C
:1000A000070200080702000807020008070200080C
:1000B00007020008070200080702000807020008FC
:1000C00007020008070200080702000807020008EC
:1000D00007020008070200080702000807020008DC
:1000E00007020008070200080702000807020008CC
:1000F00007020008070200080702000800000000CD
:1001000000000000070200080000000007020008CD
:1001100007020008000000000702000807020008AC
:10012000070200080702000807020008070200088B
:10013000070200080000000000000000070200089D
:10014000070200080702000800000000000000008D
:10015000000000000000000000000000000000009F
:10016000000000000000000000000000070200087E
:10017000070200080000000000000000000000006E
:10018000000000000702000800000000000000005E
:10019000000000000000000000000000000000005F
:1001A000000000000000000007020008070200082D
:1001B000070200080702000807020008000000000C
:1001C000000000000702000800000000000000001E
:1001D0000702000807020008DFF80CD000F040F822
:1001E00000480047711100080804002006488047B5
:1001F00006480047FEE7FEE7FEE7FEE7FEE7FEE70C
:10020000FEE7FEE7FEE7FEE71D0F0008D901000844
:10021000D2B201E000F8012B491EFBD27047002248
:10022000F6E710B513460A4604461946FFF7F0FFF5
:10023000204610BD30B50B46014600202022012487
:1002400009E021FA02F59D4205D303FA02F5491BA4
:1002500004FA02F52844151EA2F10102F1DC30BDBA
:10026000064C074D06E0E06840F0010394E8070003
:1002700098471034AC42F6D3FFF7B2FF28130008BA
:10028000481300084FF40071154800F04DF94FF481
:1002900080714FF0904000F047F94FF400714FF03B
:1002A000904000F041F94FF400710D4800F040F922
:1002B0004FF480714FF0904000F03AF94FF4007124
:1002C0004FF0904000F030F908E000F017FC05A076
:1002D00000F074FE4FF47A7000F017F8F5E70000B4
:1002E000000800482A2A2A2A2A2043616C6C2042EE
:1002F00075734661756C742048616E646C6572211B
:1003000021210D0A00000000704700211AE00022A0
:1003100014E000BF00BF00BF00BF00BF00BF00BFB0
:1003200000BF00BF00BF00BF00BF00BF00BF00BFD5
:1003300000BF00BF00BF00BF00BF521CB2F5FA5F94
:10034000E7D3491C8142E2D3704700004FF40071AB
:10035000154800F0E9F84FF480714FF0904000F03C
:10036000E3F84FF400714FF0904000F0DDF84FF4E7
:1003700000710D4800F0DCF84FF480714FF09040B0
:1003800000F0D2F84FF400714FF0904000F0CCF83C
:1003900008E000F0B3FB05A000F010FE4FF47A7007
:1003A000FFF7B3FFF5E70000000800482A2A2A2AD1
:1003B0002A2043616C6C20486172644661756C74DC
:1003C0002048616E646C65722121210D0A000000D5
:1003D00008B50549C96C0143034AD1641146C96C8B
:1003E0000140009100BF08BD00100240F0B5034677
:1003F0000A46106890FAA0F0B0FA80F47BE001257C
:10040000A540106800EA0501002973D050681D68F6
:1004100091FAA1F6B6FA86F677000326BE40B543F8
:1004200091FAA1F6B6FA86F6760000FA06F635439A
:100430001D6000BF5068012802D05068022814D106
:1004400090689D6891FAA1F6B6FA86F677000326C1
:10045000BE40B54391FAA1F6B6FA86F6760000FAE8
:1004600006F635439D6000BF00BF1069DD6891FA54
:10047000A1F6B6FA86F677000326BE40B54391FA98
:10048000A1F6B6FA86F6760000FA06F63543DD6088
:1004900000BF506802282DD1FF2914D850691D6A69
:1004A00091FAA1F6B6FA86F6B7000F26BE40B5431C
:1004B00091FAA1F6B6FA86F6B60000FA06F63543CA
:1004C0001D6200BF16E050695D6A0E0A96FAA6F634
:1004D000B6FA86F6B7000F26BE40B5430E0A96FA66
:1004E000A6F6B6FA86F6B60000FA06F635435D6261
:1004F00000BF00BF641C1068E04000287FF47FAF9D
:100500005068012802D05068022809D1D5681068C7
:100510005E68864300FB05F73E435E6000BF00BF98
:100520000020F0BD81627047816270478161704731
:100530008161704742694A40426170474FF47A7165
:10054000B0FBF1F2521E4FF0E0235A6100229A6193
:1005500005221A6100BF70472DE9F04104460025CD
:10056000C02C2CD100BF17480068204040EA04404E
:10057000B0F5400F18D0A0F54000403820B1402819
:1005800006D080280FD108E000F0BAFB054615E040
:1005900000F0B4F800B10C4D10E000F0B7F808B16D
:1005A0004FF400450AE000BF00F0AAFB074600F048
:1005B0006DFB064600F07CFB054600BF00BF2846E9
:1005C000BDE8F081881002400024F4002DE9F041DC
:1005D00004460025032C29D1204600F085F8B0F50B
:1005E000403F18D06FF44031084420B1012806D0B4
:1005F00002280FD108E000F083FB054615E000F06B
:100600007DF800B1374D10E000F080F808B14FF4EC
:1006100000450AE000BF00F073FB074600F036FB20
:10062000064600F059FB054600BF57E00C2C29D1C7
:10063000204600F059F8B0F5402F18D0A0F5402022
:10064000001F20B1042806D008280FD108E000F0D0
:1006500057FB054615E000F051F800B1214D10E0C0
:1006600000F054F808B14FF400450AE000BF00F074
:1006700047FB074600F00AFB064600F019FB05465B
:1006800000BF2BE0302C29D1204600F02DF8B0F52A
:10069000401F18D0A0F54010103820B1102806D007
:1006A00020280FD108E000F02BFB054615E000F0F4
:1006B00025F800B10B4D10E000F028F808B14FF418
:1006C00000450AE000BF00F01BFB074600F0DEFA21
:1006D000064600F0EDFA054600BF00BF2846BDE81B
:1006E000F08100000024F40001460348006808403F
:1006F00040EA01407047000088100240024800684C
:10070000C0F38020704700000010024002480068DB
:10071000C0F3400070470000901002400248C068DB
:10072000C0F30620704700000010024003498968AA
:1007300021F0F0010143014A91607047001002402E
:10074000014908607047000000000020F8B5044629
:100750000D4601270026204600F05EF800284ED105
:100760002969A868084369690843E9690843216859
:10077000244A114008432060E868616821F4405130
:100780000143616000BFA869A16821F44071014381
:10079000A16000BF1C48844204D10320FFF716FF6C
:1007A000064616E01948844204D10C20FFF70EFFDC
:1007B00006460EE01648844204D13020FFF706FFBB
:1007C000064606E01348844203D1C020FFF7C4FE6A
:1007D00006465EB1686848B10027686800903146F7
:1007E0002046EB692A6800F01DF800BF2868E16A1E
:1007F00021F00F0182B21143E16200BF00BF384611
:10080000F8BD0000F369FFEF0038014000440040EC
:1008100000480040004C00400146086800F001001C
:1008200070470000F0B51D46059C0B2A25D8B5F58C
:10083000004F15D1D7B2DFF844C05CF82770B1FB88
:10084000F7F77F0007EB5407B7FBF4F7BBB24FF69F
:10085000F07703EA0706C3F342073E43C6600CE0A5
:10086000D7B2DFF818C05CF82770B1FBF7F707EBD9
:100870005407B7FBF4F7BFB2C760F0BDE012000841
:1008800008B501464FF0E0221269009200BF084609
:10089000421C02B1401C06E04FF0E022126902F453
:1008A000803202B1401E0028F6D108BD00B587B0E5
:1008B000182101A8FFF7B3FC2020FFF789FD0420D1
:1008C000FFF786FD0120FFF783FD0220FFF780FD83
:1008D0004FF400711C48FFF725FE4FF480714FF074
:1008E0009040FFF71FFE4FF400714FF09040FFF76C
:1008F00019FE4FF400700190012002900020039037
:100900000490059001A91048FFF770FD4FF4807026
:10091000019001200290002003900490059001A90D
:100920004FF09040FFF762FD4FF4007001900120FE
:100930000290002003900490059001A94FF0904090
:10094000FFF754FD07B000BD0008004800B58FB0A8
:10095000202107A8FFF763FC182101A8FFF75FFC1F
:100960004FF480404049096E01433F4A11661146E9
:10097000096E0140009100BF00BF02201146C96C02
:100980000143D1641146C96C0140009100BF00BF12
:1009900040200190022002900020039004900590D6
:1009A0000720069001A93148FFF720FD8020019023
:1009B00002200290002003900490059007200690EA
:1009C00001A92A48FFF712FD002007904FF4E130FB
:1009D0000890002009900A900B900C200C900020A9
:1009E0000D900E9007A92248FFF7B0FE0020204985
:1009F000896860F35F711E4A916000BF00BF1146B5
:100A0000896821F0606141EA4061916000BF00BFE8
:100A10001046006820F000501146086000BF00BF7B
:100A20000846406820F4904048600846806820F0FE
:100A30002A00886000BF00BF0846006840F001003F
:100A4000086000BF00BF00BF0948C069C0F3405044
:100A50000028F8D000BF0648C069C0F380500028C5
:100A6000F1D00FB000BD00000010024000040048AB
:100A7000003801404FF400711548FFF755FD4FF461
:100A800080714FF09040FFF74FFD4FF400714FF031
:100A90009040FFF749FD4FF400710D48FFF744FD0A
:100AA0004FF480714FF09040FFF742FD4FF400711A
:100AB0004FF09040FFF738FD08E000F01FF805A068
:100AC00000F07CFA4FF47A70FFF71FFCF5E70000A6
:100AD000000800482A2A2A2A2A2043616C6C204DEB
:100AE000656D4D616E6167652048616E646C65720D
:100AF0002121210D0A0000007047704710B500BF8A
:100B000022480068C00F10B121A000F057FA00BFC2
:100B10001E480068C0F3807010B126A000F04EFAA5
:100B200000BF1A480068C0F3407010B12AA000F05E
:100B300045FA00BF15480068C0F3007010B12FA03F
:100B400000F03CFA00BF11480068C00F10B110A0BF
:100B500000F034FA00BF0D480068C0F3C06010B167
:100B60002FA000F02BFA00BF08480068C0F3806097
:100B700010B134A000F022FA00BF04480068C0F3AE
:100B8000406010B138A000F019FA10BD9410024076
:100B90002A2A2A205265736574205265717565731F
:100BA0007420466C6167203A20204C5057525253B3
:100BB000540D0A002A2A2A20526573657420526552
:100BC000717565737420466C6167203A2020575711
:100BD00044475253540D0A002A2A2A20526573654D
:100BE00074205265717565737420466C6167203A94
:100BF0002020495744475253540D0A002A2A2A20DC
:100C00005265736574205265717565737420466C06
:100C10006167203A20205346545253540D0A000075
:100C20002A2A2A205265736574205265717565738E
:100C30007420466C6167203A2020424F5252535430
:100C40000D0A00002A2A2A20526573657420526515
:100C5000717565737420466C6167203A2020504995
:100C60004E5253540D0A00002A2A2A2052657365F9
:100C700074205265717565737420466C6167203A03
:100C800020204F424C5253540D0A0000014600BF31
:100C90000548806800F0F0000009044A105C00F08C
:100CA0001F0221FA02F070470010024010130008E2
:100CB000014600BF0648806800F4E060054A02EB88
:100CC0001020007800F01F0221FA02F070470000A7
:100CD0000010024020130008014600BF064880684B
:100CE00000F46050054A02EBD020007800F01F02AB
:100CF00021FA02F0704700000010024020130008A3
:100D000010B500BF0A49896801F00C01042904D01C
:100D1000082904D00C2907D103E0064806E006485C
:100D200004E000F00BF801E0024800BF00BF10BD76
:100D3000001002400024F40000127A0070B500BFD9
:100D40001348C06800F003000546022D02D0032DB1
:100D500004D101E00F4C03E00F4C01E00D4C00BF4B
:100D600000BFFFF7DBFC60430949C96801F0F001EF
:100D7000012202EB1111B0FBF1F10548C06800F04F
:100D8000C06002EB50604000B1FBF0F070BD0000AD
:100D9000001002400024F40000127A0070477047EF
:100DA00070B508205649096821F00F010143544AE3
:100DB000116000BF00BF5348006820F480705149A3
:100DC0008039C1F8800000BF00BF4F48006840F480
:100DD00080304D49086000BF00BF00BF4A4800682E
:100DE000C0F340400028F8D00320102155220023F2
:100DF00040EA010444EA02241C43434DED68434E9B
:100E000035402C43404DEC6000BF00BF2846C06811
:100E100040F080702946C86000BF00BF08460068E7
:100E200040F08070086000BF00BF00BF3648006817
:100E3000C0F340600028F8D003203349896821F0CE
:100E400003010143304A916000BF8020FFF76EFC30
:100E500000BF00BF2C48806800F00C000C28F8D1BF
:100E60002B48006840F080702949086029480068D4
:100E700040F00100274908600020486000BF254875
:100E800040686428FBD30020FFF750FC00201E4977
:100E9000896821F4E06101431B4A916000BF00BFF3
:100EA0001146896821F460510143916000BF1A48DE
:100EB000FFF744FB0420042808D14FF0E021096922
:100EC00041F004014FF0E022116107E04FF0E02112
:100ED000096921F004014FF0E022116100BF0E48C2
:100EE000FFF72EFC4FF4403007498831096821EAAA
:100EF000104182B21143044AC2F8881000BF70BD8D
:100F00000020024080700040001002400C80FFF979
:100F1000FCED00E0001000E080FE210A05480068BA
:100F200040F47000034908604FF0006001498039C7
:100F30000860704788ED00E04FF400711548FFF736
:100F4000F3FA4FF480714FF09040FFF7EDFA4FF451
:100F500000714FF09040FFF7E7FA4FF400710D4831
:100F6000FFF7E2FA4FF480714FF09040FFF7DCFAA0
:100F70004FF400714FF09040FFF7DAFA08E0FFF706
:100F8000BDFD05A000F01AF84FF47A70FFF7BDF927
:100F9000F5E70000000800482A2A2A2A2A2043618F
:100FA0006C6C2055736167654661756C742048618F
:100FB0006E646C65722121210D0A00000FB4054B8F
:100FC00010B503A9044A029800F018F810BC5DF8A7
:100FD00014FB0000511100080400002002E008C8C2
:100FE000121F08C1002AFAD170477047002001E0A3
:100FF00001C1121F002AFBD1704700002DE9FF4FED
:1010000089B09B460446002506E025280BD05A46A9
:101010000B999047641C6D1C20780028F5D10DB009
:101020002846BDE8F08F0027B8460122474900E076
:10103000074314F8013F203B02FA03F00842F7D1BE
:1010400020782E2819D114F8010F47F004072A2818
:101050000ED06FF02F022078A0F1300109290CD8B2
:1010600008EB880102EB410100EB0108641CF2E788
:101070000A98641C50F8048B0A9020780028CED07F
:10108000642808D0692806D075281ED05A460B99C6
:1010900090476D1C58E00A994FF00A0901C90A915E
:1010A000002802DA40422D2102E0390504D52B2127
:1010B0008DF82010012103E0F90704D02021F7E783
:1010C0008A4608AE0DE00021FAE70A994FF00A09B6
:1010D00001C90A91F7E74946FFF7ACF8303106F845
:1010E000011D0028F7D1ADEB060000F120097807BB
:1010F00001D44FF00108C84502DDA8EB090000E06B
:1011000000208046002706E008A85A46C05D0B99DB
:1011100090476D1C7F1C5745F6DB04E030205A4693
:101120000B9990476D1CB8F10001A8F10108F5DC9E
:1011300005E016F8010B5A460B9990476D1CB9F162
:101140000001A9F10109F4DC641C65E7092801002C
:101150000A4600BF00BF0549C969C1F3C011002993
:10116000F8D0C1B2014B996200BF7047003801400E
:1011700008B501204449096E0143434A11661146EE
:10118000096E0140009100BF00BF00071146896D44
:10119000014391651146896D0140009100BF00BF78
:1011A00003200246394B19684FF6FF031940384BAC
:1011B0000B4343EA0221354B196000BF00BF35489D
:1011C000806820F480403349886000BFFFF7E8FD65
:1011D000FFF76CFBFFF7BAFB00BF00BF2E48C069EA
:1011E000C0F340500028F8D000BF2B48C069C0F3BE
:1011F00080500028F1D04FF47A70FFF741FB27A010
:10120000FFF7DCFE25A0FFF7D9FE24A0FFF7D6FEEE
:1012100023A0FFF7D3FE4FF400712A48FFF786F9A9
:101220004FF480714FF09040FFF780F94FF4007158
:101230004FF09040FFF77AF9002423E0FFF75EFCBF
:101240002146641C20A0FFF7B9FE4FF400711D4831
:10125000FFF770F940F24D10FFF712FB4FF4807169
:101260004FF09040FFF766F940F24D10FFF708FB92
:101270004FF400714FF09040FFF75CF940F24D10D1
:10128000FFF7FEFADAE70000001002400CED00E084
:101290000000FA0500700040003801400D0A00000F
:1012A0002A2A2A2A2A2A2A2A2053797374656D2029
:1012B0007374617274202A2A2A2A2A2A2A2A0D0A79
:1012C00000000000000800482A2A2052756E6E694E
:1012D0006E67203A202564207365630D0A000000C4
:1012E00001000000020000000400000006000000F1
:1012F000080000000A0000000C00000010000000C0
:1013000020000000400000008000000000010000FC
:1013100000000000000000000102030406070809A5
:101320000000000001020304481300080000002030
:1013300008000000DC0F000850130008080000201F
:1013400000040000EC0F00080024F400000000007E
:04000005080001D915
:00000001FF
